:020000042000DA
:1030000088720020E9600020096100200B61002027
:1030100000000000000000000000000000000000B0
:103020000000000000000000000000000D61002012
:1030300000000000000000000F610020116100206E
:103040006B480020000000007F5400201F6000201B
:10305000B3600020BF600020316100203361002098
:103060000000000035610020376100203961002038
:103070003B6100203D6100203F6100200000000016
:1030800041610020000000000000000043610020BA
:1030900000000000456100204761002049610020D8
:1030A000000000004B610020000000004D61002086
:1030B0004F61002000000000000000000000000040
:1030C000F8B5040001D10120F2BD82277F00002560
:1030D000606A002804D16068B84203D0E56101E06D
:1030E00025616561A56226005C367078002803D1F1
:1030F0003570200000F0D0FC02207070206801685C
:10310000402291430160E368E022D200F0200001F8
:10311000934203D90021834204D104E08021490174
:10312000934200D0A562012263681F40BC46A76895
:1031300084231B023B4067463B439C46277C02237B
:103140001F4063461F43636913403B439C46A76986
:1031500053021F4063461F43BC46277F38233B4032
:1031600067463B439C462023E75C80231F40634621
:103170001F43BC46A36A57033B4067463B4327684F
:103180003B60A3691F0C04231F40BC462423E35C5F
:1031900010273B4067463B439C463423E75C0823AB
:1031A0001F4063461F43E3681840384301432068CB
:1031B00041602068C169764B0B40C36175607270D5
:1031C0000020F2BDFEB504000E00150000F0E6FC84
:1031D0000090280021004431497E01290AD1002EA7
:1031E00001D0290001D10120FEBD21004431097E1A
:1031F000012901D10220FEBD0121220044321176B5
:103200000321220044325176002721004431CF614E
:10321000A663A587E587276400214422A1522200E6
:103220004432518021004431CF60210044318F600D
:10323000A16880221202914209D121680A684023C4
:103240009A430A6021680A681B0213430B602168D5
:1032500040220B68134002D10B681A430A60616870
:10326000029DE268AB4B9A4233D3002901D001287A
:1032700009D1A06B00882168C860A06B801CA06386
:10328000E08F401EE087009E08E0A16B0988C160C6
:10329000A06B801CA063E08F401EE087E08F0028B9
:1032A0005AD0206881688907EFD400F077FC801B32
:1032B000A8420BD30020C0438542EFD000942046A3
:1032C00044300121417607760320FEBD002DE5D173
:1032D000F4E7002901D0012814D1A06B2168E28F06
:1032E000022A07D30088C860A06B801CA063E08F0F
:1032F000801E06E000780873A06B401CA063E08F7E
:10330000401EE087009E07E00988C160A06B801C1A
:10331000A063E08F801EE087E08F00281CD020682B
:10332000816889070BD5A16BE28F022AECD209785C
:103330000173A06B401CA063E08F401EEBE700F020
:103340002DFC801BA84204D30020C0438542B5D188
:10335000E2E7002DE0D1B1E729003200200000F0C3
:1033600055FB002803D0202021004431C861A0680B
:10337000002806D100972068C168009180680090FD
:10338000009820004430012141760776C069BBE0F7
:10339000FFF7FFFFFEB505002C004434607E0128D6
:1033A00021D1042601911700029368688221490007
:1033B00088420CD1A868002809D16676029800904E
:1033C0003B00019A1146280000F0A8F8FEBD00F06D
:1033D000E5FB0199002901D0390001D10120FEBD92
:1033E000217E012901D10220FEBD012121766676D0
:1033F0000021E16101992964278067800021A96388
:10340000A987E987A160E1602A684249EB688B429D
:10341000536802D39B4E1E4001E0B6021E43566025
:10342000AA6880231B029A4209D12A6813684026A1
:10343000B34313602A681368374E1E4016602A682B
:10344000402316681E4002D11668334313600022E1
:10345000D2430192120C6B461A80EA688A42029E9D
:1034600024D207000AE0007B296C0870286C401CFD
:103470002864608869460988401860806088002850
:1034800034D028688168C907EDD400F087FBC01BE1
:10349000B04208D301988642F0D001206076002027
:1034A00020760320FEBD002EE8D1F6E707000AE0F3
:1034B000C068296C0880286C801C28646088694674
:1034C000098840186080608800280FD028688168CB
:1034D000C907EDD400F062FBC01BB04203D30198D2
:1034E0008642DAD1EFE7002EEDD1D6E72800310091
:1034F0003A0000F04FFA002801D02020E0610120BE
:10350000607600202076E069002800D00120C0B25B
:10351000FEBD000001070000FFBFFFFFF8B584B04B
:1035200004000F0015001E000120039000F036FB80
:10353000029020004430417E012909D06268822334
:103540005B009A4210D1A268002A0DD104290BD148
:10355000002F02D0002D00D0310000D123E1210046
:1035600044310A7E012A01D1022029E101220A7692
:103570004A7E042A01D005224A760022CA612564C7
:103580004E800E80A763E687A6878A60CA608D4951
:10359000E2688A4201D2022E04D322685368394D70
:1035A0001D4004E02268536880256D011D4355606D
:1035B0002268402315681D4002D115682B43136013
:1035C0006268814B6D462B80012301930A9FE3685B
:1035D0008B4259D3002A01D0012E0BD1A06B008859
:1035E0002168C860A06B801CA063E08F69460988D1
:1035F0004018E087039E029DE08F002804D1200040
:1036000044304088002867D020688168890710D539
:10361000E18F00290DD0002E0BD0A16B0988C1606D
:10362000A06B801CA063E08F694609884018E08782
:10363000002620688168019A0A4010D02100443198
:103640004A88002A0BD0C068226C1080206C801C35
:10365000206448886A46128880184880019E00F0DD
:103660009DFA401BB842C7D30020C0438742C3D055
:1036700000942046443001994176002101760320D0
:103680009EE000BFFFEFFFFF50496B465980002AC4
:1036900001D0012E17D1A06B2168E28F022A08D336
:1036A0000088C860A06B801CA063E08F69464988D1
:1036B00007E000780873A06B401CA063E08F6946A8
:1036C00009884018E087039E029D20004430E18F66
:1036D000002902D14188002958D021688A689207C0
:1036E0001CD5E28F002A19D0002E17D0A26BE38FD1
:1036F000022B08D31288CA60A16B891CA163E18FD9
:103700006A46528807E012780A73A16B491CA163CC
:10371000E18F6A4612888918E187002621688A6845
:10372000019B134025D04288002A22D0226C438876
:10373000022B13D3C9681180216C891C2164418834
:103740006A465288891841804088022810D2206831
:103750004168802252010A43426009E0097B1170EE
:10376000216C491C216441886A461288891841806D
:10377000019E00F013FA401BB84204D30020C0435E
:10378000874202D1A1E7002F9FD171E739002A00BB
:10379000200000F03BF9002807D020004430202111
:1037A000C1610021017601200AE020004430019926
:1037B000417600210176C069002800D00120C0B206
:1037C00005B0F0BD01070000FFFF0000FEFF000094
:1037D000FEB582B006000A9C1D4600F0DFF9281AEB
:1037E000071900F0DBF9694909684901090D7943B6
:1037F000009100240125019006E00098002800D1E6
:1038000000270098401E00903068806802990140AF
:103810000298814201D1012000E000206946097B25
:10382000884235D004980021C9438842ECD000F08A
:10383000B5F90199401AB84201D2002FDDD13068A4
:103840004168E022914341607068822149008842CA
:103850000BD1B068E903884202D04909884204D1FB
:10386000306801684022914301606803B16A814277
:1038700008D131680A68464B13400B6031680A680A
:103880001043086030005C3045700470032000E095
:10389000002005B0F0BDFCB585B007000E000C9D02
:1038A00000240020694608700699009100F076F91E
:1038B0000099081A4019009000F070F939680C312D
:1038C000009A324B1B6823256B431B0D5A43019210
:1038D0003D000296059F009E0490039106E001982A
:1038E000002800D100260198401E019028688068B9
:1038F00002990140B94245D00298C021C9008842CE
:1039000007D1002F05D103980078694608706846F2
:10391000007806980021C9438842E7D000F03EF9BC
:103920000499401AB04201D2002ED8D128684168CB
:10393000E0229143416068688221490088420CD1AD
:10394000A86880210902884202D04909884204D12E
:103950002868016840229143016080208001A96AA3
:10396000814208D129680A68094B13400B60296815
:103970000A681043086028005C300121417004701F
:10398000032000E0002007B0F0BD0000B865002073
:10399000FFDFFFFFFEB5040080273F02822676008E
:1039A0006068B0420AD1A068B84202D07B09984250
:1039B00004D1206803684025AB4303600192029163
:1039C000202501980090029B002280212000FFF713
:1039D000FFFE002813D16068B04215D1A068B8423C
:1039E00002D0690188420FD101980090029B002209
:1039F000C021C9002000FFF74EFF002804D0206E30
:103A0000054325660320FEBD0020FEBDF8B5040079
:103A10000F001600202500963B000022C02149011E
:103A2000FFF739FF002812D100963B0000228021C9
:103A30002000FFF7CDFE002809D100963B000022B0
:103A4000C021C9002000FFF726FF002803D0206E08
:103A5000054325660320F2BD80B54A484A49016006
:103A600082214900416000218160E022D200C260D1
:103A700001614161802292008261C1610162416203
:103A800081620722C26201634163FFF719FB0028CC
:103A900001D000F0FDF801BDF1B58EB01422002177
:103AA00001A800F0F6F81C22002106A800F0F1F8A9
:103AB0000E9800683449884261D1042006900024A1
:103AC0000A9406A800F02EF9002801D000F0E0F8D2
:103AD0002E48810CC2680A43C260C268114000913E
:103AE0000099022102680A430260006808400090C1
:103AF00000983820019002910394032004900594CB
:103B000001A9234800F094F9224D2348143028607D
:103B1000112068601027AF60EC6080262E616C6118
:103B2000AC61EC612C62280000F040FA002801D062
:103B300000F0AEF80E9845650E98A8621648E86544
:103B40002F666C66AC66EE662C676C67AC67EC67DC
:103B500028005C3000F02AFA002801D000F098F824
:103B600028005C300E9988650E98842168500022E8
:103B70000021192000F0B7FA192000F0B9FA0FB0AF
:103B8000F0BD00009C6D0020003001403410024068
:103B900000040050E46C00201C0002400148406812
:103BA000704700BFAC65002070B58CB000F0C6FA5D
:103BB0001C22002105A800F06CF8142200216846A0
:103BC00000F067F80726059640250A95002406941C
:103BD0000794A8000890099405A800F00FFB00289E
:103BE00000D0FEE7009601940394049401216846F6
:103BF00000F024FC002800D0FEE71422002101A8D8
:103C000000F047F802211E4802680A430260026879
:103C1000114000910099082102680A43026000687F
:103C2000014000910098174E01224021300000F021
:103C3000A8F90195012502950395049401A9300086
:103C400000F0F6F80E2001900295039404940E4CB7
:103C500001A9200000F0ECF8FFF7FEFE00F0D8FC10
:103C600001220221200000F08CF900F001FDFCE7A8
:103C700080B5064800F022FD00F074FA01BD000096
:103C80003410024000040050000C00500038014085
:103C9000FEE710B50400080011000200200000F04B
:103CA000C3FD200010BDF1B4016842184168480806
:103CB000131800988068C9071ED5494640181BE0B4
:103CC0001778521C0770401C761EF9D1002C13D0B7
:103CD0001678521C89080D40032D01D11578521C0D
:103CE000290271184D424119A41C05D00D78491CB8
:103CF0000570401C641EF9D19A420FD01178521CF5
:103D0000032503260E4002D11678F61C521C0C091E
:103D10000F2CD9D114780F34521CD5E700980C30F1
:103D2000F2BC7047F8B5070000200025394C3978FF
:103D3000490640D5009080204005E16B014008D144
:103D4000E16B0143E163E16B0840009000980120C2
:103D50000090E16DC020800008400FD0B969884212
:103D60000CD0E16D2C480840E16D802252020A43DC
:103D7000E265E16D294A0A40E265E065C0070DD5BC
:103D8000FFF70CFF0600E06D800707D4FFF706FF82
:103D9000801B23498842F6D3032505E0E06D1E49C8
:103DA0000140B8690843E0650098002803D0E06B43
:103DB0001C490140E1633878C00705D5606D0321D7
:103DC0008843B968014361653878800705D5606D1F
:103DD00015490140F868084360653878800605D5C4
:103DE000606D80008008796901436165387840071B
:103DF00005D5606D0D490140386908436065387824
:103E0000000605D52068E0218843796801432160D8
:103E10002800F2BD00100240FFFCFFFFFFFFFEFF85
:103E200089130000FFFFFFEFFFCFFFFFFF3FFFFF02
:103E3000FCB50022012300932CE0062703E0544F39
:103E4000B842FAD10527A74037432F60514C256867
:103E5000DC4325404E68F60300D51D434D4E3560CA
:103E6000756825404F68BF0300D51D4375604A4DF6
:103E70002E6826404D68ED0200D51E43464D2E604B
:103E80006E6834404E68B60202D526001C003443EA
:103E90006C60521C0C682300D34071D0009B93408F
:103EA0000193019B2340F4D04C68022C01D0122CCA
:103EB00012D1D408A40005192C6A97001C263E4094
:103EC0000F27B740BC430F7C3F073F0FBC4637006E
:103ED0006646BE4026432E62066854000327A7406C
:103EE000FD432E400F79BF07BF0FA7403743076040
:103EF0004E68012E05D0022E03D0112E01D0122EB5
:103F000011D186682E40CF68A74037438760476845
:103F1000019EB743BC464E683709009E3E4096401E
:103F200067463E4346604E68032E05D0C66835405E
:103F30008E68A6402E43C6604C68E400A9D5174C95
:103F40009508AD0065192E68D70018243C400F274E
:103F5000A740BE43A027FF05B84201D1002772E762
:103F60000F4FB84201D1009F6DE70E4FB84201D10B
:103F7000022768E70C4FB84200D060E7032762E7EA
:103F8000F3BD002A01D08161704781627047000053
:103F900000140050801802400018024060180240CF
:103FA0000004005000080050000C005038B5040018
:103FB00001D1012032BD206824494018142100F0AD
:103FC00039FC8000206402202521605420680068AC
:103FD0001F4901402068016020680168A2680A4307
:103FE000E168114322690A4361691143A2690A43E6
:103FF000E1691143226A0A430260200000F02AF8B6
:104000000025A0688021C901884200D1656020791F
:10401000616C0860E06CA16C4860606800280AD0A0
:10402000052808D2200000F02AF8206D0560A06D58
:10403000616D486002E025656565A565E563012061
:104040002521605424202554002032BDF8FFFDBFF7
:104050000F80FFFF10B5040020780838142100F00D
:10406000E9FB216C032291430C4A891861640C49D5
:10407000A16401211C2202409140E16410BD01793C
:104080008A00084BD2180265074A42650122491E80
:104090008907890F8A408265704700000008024046
:1040A00080080240FC0802404009024010B5C200EE
:1040B00018231340FF249C40E2438907090E9940CE
:1040C000030004D419489B089B00C01806E0184B55
:1040D0000007000F083880088000181803681A408D
:1040E0001143016010BD80B5FFF7E0FF01BD000086
:1040F000010005D40121C006C00E81400D480160B9
:10410000704710B5401E80214904884201D3012028
:1041100010BD094C606003210020C043FFF7C6FFBB
:104120000020A0600721216010BD000000E400E035
:104130001CED00E000E100E010E000E010B500241C
:1041400007480168820D0A430260032000F08EFBDD
:10415000002801D0012401E000F0AEFB200010BDDA
:104160000020024070B5FFF719FD0500224C2068C1
:10417000A10D014321602068400506D4FFF70EFD24
:10418000401B0328F7D3032070BD8020C00160606E
:10419000FFF704FD06000025A560A0683821014056
:1041A00006D0FFF7FBFC801B9B498842F5D3EAE76A
:1041B000FFF7F4FC2168994A0A4022600600206853
:1041C000800305D5FFF7EAFC801B6528F7D3DAE703
:1041D0002068934901402160A5610020C04320620E
:1041E0009048914908609148006800F03FFB002822
:1041F00000D0012070BD000000100240F8B505009D
:104200004BD08B4C2878C00707D5A0686968382246
:104210000240082A43D100293FD02878800723D5BF
:10422000A268E9688348844F382313406DD1002980
:1042300033D061680F4069690902394361602168C0
:1042400008402969014321607648012122689204CF
:10425000520F914000F0EEFA73490860734800680D
:1042600000F004FB002818D138272878000706D56D
:10427000A869A1683940182979D100280DD00420F7
:104280002968014000D1C5E0A968A2681740202F25
:1042900000D08FE0002900D0BCE00120F2BD8020DA
:1042A0004002814207D0A022D202914207D1216868
:1042B00082000A43226021680843206007E02068EA
:1042C00056490140216020685549014021608027FE
:1042D000BF02686800280CD0FFF760FC0600206869
:1042E00038409AD1FFF75AFC801B6528F7D303208A
:1042F000F2BDFFF753FC0600206838408DD0FFF771
:104300004DFC801B6528F7D3F1E7220D00920029B0
:104310001CD0216808402969014321602068910868
:1043200001432160FFF73AFC060020680099014034
:1043300005D1FFF733FC801B0228F6D9D7E7606868
:10434000074068690002384360608DE72068904943
:1043500001402160FFF722FC06002068009901401F
:1043600082D0FFF71BFC801B0228F6D9BFE700288C
:10437000206E0FD0012101432166FFF70FFC0600DC
:10438000206E800700D57AE7FFF708FC801B022823
:10439000F6D9ACE7012188432066FFF7FFFB060052
:1043A000206E800700D46AE7FFF7F8FB801B022825
:1043B000F6D99CE70122012904D0052906D1E16D37
:1043C0000843E065E06D0243E26506E0E06D90437E
:1043D000E065E06D04218843E0650F4F0226A86880
:1043E00000280BD0FFF7DAFB0500E06D304011D15B
:1043F000FFF7D4FB401BB842F7D378E7FFF7CEFBBB
:104400000500E06D304005D0FFF7C8FB401BB84207
:10441000F7D36CE70020F2BD89130000FFFFFEFF19
:10442000FFFFFBFF006CDC02B8650020B4650020D4
:1044300000100240FFC7FFFFFF80FFFFF8B5070035
:1044400069D00091694800684007400F884218D23F
:10445000664C206807218843009901432160FFF7DB
:104460009DFB009D060020684007400FA84207D032
:10447000FFF794FB801B5E498842F4D30320F2BD12
:10448000009539685B4C022001420ED0490706D5E1
:10449000A168594A0A40B02109011143A160A168ED
:1044A000564A0A40F9681143A1600725ED4339785F
:1044B000C90733D521681C229143BA680A43226098
:1044C0007968012918D12068800324D5A068284084
:1044D0000143A160FFF762FB3E000700A06838219E
:1044E00001407068C000814217D0FFF757FBC01B26
:1044F0003F498842F2D3C1E7002903D12068400533
:10450000E4D408E0032903D1226E1040DED102E09A
:10451000E26D1040DAD10120F2BD37000098334936
:1045200009684907490F884217D23048006805409A
:10453000009828432D490860FFF730FB009D0600D6
:104540002A4800684007400FA84206D0FFF726FB24
:10455000801B27498842F3D390E73878400705D578
:10456000A0682549014038690843A06000F012F8AE
:104570002349A2681205120F9200895CC906C90E70
:10458000C840204908602048006800F06FF9F2BD7B
:10459000FFFEFFFF30B50722164908688408144063
:1045A000641C1A4838238D681D4007D10B6801210F
:1045B000DB0A1A40914000F03DF912E08A681A4087
:1045C000082A0ED088681840202802D180200002D6
:1045D00007E088680340182B02D1FA20C00100E0F0
:1045E0000020210000F026F930BD0000002002402C
:1045F0008913000000100240FF8FFFFFFFF0FFFF54
:10460000645F0020B8650020B4650020006CDC0207
:1046100010B5214C20001030206000F065F960607A
:10462000200000F0AFFC20002430A0600020E060FB
:104630002000083000F0A6FC00F082FC174800F0D3
:10464000A9FD174800F0A6FD164800F0A3FD164886
:1046500000F0A0FD154800F09DFD154800F09AFD02
:10466000144800F097FD10BD80B5FFF701FB01BDB8
:1046700038B5114C2068002807D100F095FC0500E2
:10468000012D01D100F06FFC25602068012801D1C7
:1046900000F0ABFC31BD000000640020AC640020E1
:1046A000806500202865002054650020BC6500203E
:1046B0003864002064640020746E00200100002033
:1046C0004B4A4C4B994209D151688023DB010B4383
:1046D00053605168484B0B4053607047474B9942B9
:1046E00007D1116880239B020B4313601168444B70
:1046F00014E0444B994207D111688023DB020B433D
:1047000013601168404B09E0404B994209D1116890
:1047100080231B030B43136011683D4B0B40136058
:10472000704701207047FEB5040001200125226872
:1047300010405BD10E00206836490140B068084344
:104740003169014370690843F16901432160606880
:1047500031490140F06808436060A0682F4901407A
:10476000B0690843A0602348844203D1032000F0CD
:1047700015FE0CE02148844205D02248844202D034
:10478000224884422BD1684600F0FCFD02980028A4
:1047900025D07768002F22D0002531680C291ED241
:1047A0001F4A0906890D515800F044F87908F2694A
:1047B00080231B029A420CD140004018390000F0BF
:1047C00039F880B2174901400007400F0143E1600A
:1047D00005E04018390000F02DF880B2E060E06A92
:1047E0000F218843316889B20843E0622800FEBD8A
:1047F0002C10024000380140FFBFFFFF0044004082
:10480000FFFFFDFF00480040FFFFFBFF004C0040A2
:10481000FFFFF7FFF369FFEFFFCFFFFFFFFCFFFF95
:10482000245F0020F0FF0000094202D0491E4254DC
:10483000FCD17047094214D088420FD30122030CE7
:1048400001D100041204002300185B418B4200D305
:104850005B1A5241F8D31900100070470100002084
:10486000704708B500F00AFE08BDFEE770B5060007
:1048700000240F4D2978002916D0FA208000FFF778
:10488000D9FF01000B480068FFF7D4FFFFF739FCA0
:10489000002809D1042E07D2002231000020C04395
:1048A000FFF721FCAE6000E00124200070BD00BFD6
:1048B000AC650020B865002081B00A48012142683B
:1048C0000A434260426811400091009980214905E5
:1048D00002680A430260006801400091009801B03C
:1048E000704700BF3C10024010B5964C200000F00D
:1048F00002F8200010BD30B50024002201239249A7
:104900000568002D01D00C7101224468002C02D0F2
:104910000C1DA354521C8368002B03D002230C1DD2
:10492000A354521CC368002B03D011230C1DA354A5
:10493000521C4369002B03D021230C1DA354521C8D
:104940000369002B03D031230C1DA354521C036AAE
:10495000002B03D044230C1DA354521C436A002B8C
:1049600003D063230C1DA354521C836A002B03D075
:1049700073230C1DA354521C8369002B04D0822383
:104980000C1DD5B26355521CC369002B04D0922371
:104990000C1DD5B26355521C836C002B04D05023E0
:1049A0000C1DD5B26355521CC06C002804D0512098
:1049B0000B1DD4B21855521C0A7030BD38B5792081
:1049C00000F0DDFD604C207800F0D9FD312000F0D2
:1049D000D6FD002504E06019007900F0D0FD6D1CC3
:1049E00020788542F7D3792000F0C9FD31BD80B52C
:1049F000792000F0C4FD312000F0C1FD002000F05E
:104A0000BEFD00200AE080B5792000F0B8FD01204D
:104A100000F0B5FD042000F0B2FD4D2000F0AFFD28
:104A2000792000F0ACFD01BD38B500F0D6FD0028BE
:104A300013D1792000F0A3FD684600F061F91F282A
:104A40000BD0792000F09BFD00F08EFD050000F0FA
:104A50008BFDE943C9B2884203D01F2000F08FFDCF
:104A600031BD792000F08BFD009800F0D0FB0400F0
:104A70006D1C2100009800F0DDFB00F080FD009827
:104A8000401C00906D1EF4D131BDFEB500F0A5FDB7
:104A900000281FD1792000F072FD684600F030F93F
:104AA0001F2818D0792000F06AFD864F3C0000F0E6
:104AB0005BFD411C0191019E0500002E05E000F008
:104AC00053FD45402070641C761EF8D100F04CFD6B
:104AD000A84203D01F2000F052FDF7BD019A390013
:104AE000009800F0B9FB792000F049FD00F081FD4D
:104AF000F7BD1CB5BA4C002208212000FFF741FA8F
:104B0000012204212000FFF73CFA00F066FD002896
:104B10000CD1792000F033FD684600F0F1F81F2831
:104B200005D0009800F01DFC002803D11F2000F0E4
:104B300026FD13BD792000F022FD009800F0D3FB84
:104B400013BD0000D8640020506E002080B500F036
:104B500044FD002801D01F2063E7792000F00FFDFD
:104B60000121C80600F08EFB792000F008FD00F05E
:104B700040FD01BD80B5792000F001FD792000F0F5
:104B8000FEFC00218020000500F07CFB00F031FDE0
:104B900001BDFEB579206946087100F01EFD0028B0
:104BA00001D01F2059E0792000F0E9FC00F0DCFC86
:104BB000060200F0D9FC0643350AF4B26C40C64840
:104BC00001003140814218D100F0CEFCA04238D122
:104BD000C248864205D0401E864202D0401E864210
:104BE0002FD1384806704570BD4A01468020000527
:104BF00000F08BFB00282ED023E0761C314F3E7056
:104C0000300A7870BD1C002E15E000F0ADFC444069
:104C10000002009000F0A8FC01000098084380B258
:104C20002100C4B24C40C2498E4203D22870000A0F
:104C30006870AD1C761EE8D100F096FCE4B2A0428C
:104C400003D01F206946087105E0A54A390080207D
:104C5000000500F070FB6846007900F090FCF7BD9D
:104C6000F8B500F0BAFC002818D1792000F087FCD4
:104C700000F07AFC9B4F3C00411C0091009E050017
:104C8000002E05E000F070FC45402070641C761E8C
:104C9000F8D100F069FCEDB2A84203D01F2000F06B
:104CA0006EFCF1BD009B3A0080210905012000F057
:104CB000FFFA0400792000F062FC002C01D100F022
:104CC00098FCF1BD2467002010B500F086FC002898
:104CD00003D01F2000F053FC10BD792000F04FFCE2
:104CE0000023002280210905002000F0E1FA0400E1
:104CF000792000F044FC002C01D100F07AFC10BDBA
:104D0000B9B582B000F030FC6946087000F02CFCA8
:104D1000070000F029FC040000F026FC050000F06C
:104D200023FC6946097879406140694088420ED188
:104D300002996846007800063A04024320021043B4
:104D400005432800086000F04BFA002801D11F201D
:104D500000E0792004B0B0BD7CB5792000F00FFCF4
:104D60000121684600F0C0F81F2836D0792000F0F5
:104D700006FC5C4C0120207068460088608000F0D2
:104D8000F3FB251D01022980060000F0EDFBA18840
:104D90000143298070400500A088812814D2002892
:104DA0000DD0002607E000F0DFFBF1B2611888713A
:104DB00068400500761CF0B2A1888842F3D300F069
:104DC000D3FBEDB2A84201D01F2006E0792000F00D
:104DD000D6FB200000F0E8FB792000F0D0FB73BD8B
:104DE000000C00507CB5792000F0C9FB0221684618
:104DF00000F07AF81F286BD0792000F0C0FB394C06
:104E00000220207068460088608000F0ADFB251D00
:104E100001022980060000F0A7FBA1880143298038
:104E200070400500A088812849D200280DD00026B6
:104E300007E000F099FBB1B2611888716840050085
:104E4000761CA188B0B28842F3D300F08DFBEDB29E
:104E5000A84234D1792000F092FB00F085FB2100BC
:104E6000863101910102019A1180050000F07CFB5E
:104E7000019909880143019A118068400500019851
:104E800000882C4988421AD2200086300190008880
:104E900000280FD0002608E000F066FBB1B26118D0
:104EA0008822885468400500761C01990988B0B2B0
:104EB0008842F1D300F058FBEDB2A84201D01F2088
:104EC00006E0792000F05BFB200000F06DFB79200C
:104ED00000F055FB73BD0000F0FF0000FFFF000075
:104EE0008C04000024670020F2B504001F2500F0A8
:104EF0003BFB060000F038FB070000F035FB3900F3
:104F00007140884212D168460178300238432080CF
:104F1000012904D108490988814207D105E0022905
:104F200004D106490988814200D179252800F2BDC3
:104F300046020000010400002067002022670020D4
:104F400038B50025914C06E0E8002058006800289C
:104F500000D080476D1C206B8542F5D331BD80B5F4
:104F6000FFF782FB01BD38B50025884C06E0E8005C
:104F700020584068002800D080476D1C206B854277
:104F8000F5D331BD30B501000020804A136B062BEC
:104F900008D2DC0014190D682560496861605B1C4B
:104FA000136330BD012030BDF8B500260024774DD5
:104FB00000E0761C286B864215D2F0002F18386866
:104FC00080680028F5D0804704000128F1D16F6384
:104FD0006F4D002202212800FEF7D3FF0122082195
:104FE0002800FEF7CEFF2000F2BD10B5674C606BC5
:104FF0000068C068002834D0804700282BD00128E2
:1050000030D0022835D0032800D1A2E0112837D0B3
:10501000212843D031283AD0322870D0432858D0A4
:10502000442850D0452871D0502800D198E051280C
:1050300000D19CE0632854D064286ED0732857D0E8
:10504000742871D0822830D0832874D0922833D02D
:10505000932877D092E0606B41680968002913D0EB
:10506000884710BD606B4168496800290CD08847AB
:1050700010BD606B41688968002905D0884710BD64
:10508000606B4168C968002979D0884710BD606BA2
:1050900041680969002972D0884710BD606B41687A
:1050A000496900296BD0884710BD606B41688969E8
:1050B000002964D0884710BD606B4168C969002928
:1050C0005DD0884710BD606B4168096A002905D131
:1050D00055E0606B4168096A002950D00846804756
:1050E00010BD606B4168496A002948D0884710BDEF
:1050F000606B4168896A002941D0884710BD606BA8
:105100004168C96A00293AD0884710BD606B416880
:10511000096B002933D0884710BD606B4168496B2B
:1051200000292CD0884710BD606B4168896B00292D
:1051300025D0884710BD606B4168C96B00291ED01F
:10514000884710BD606B4168096C002917D08847FB
:1051500010BD606B4168496C002910D0884710BDB4
:10516000606B4168896C002909D0884710BD606B6D
:105170004168C96C002902D0884710BD606B006887
:105180000169002901D01F20884710BD006E002052
:10519000000C005030B50100784A13680020072B3E
:1051A0001BD2774C2C255D4364190D6825604D6832
:1051B00065608D68A560CD68E5600D6925614D6904
:1051C00065618D69A561CD69E5610D6A25624D6AEC
:1051D0006562896AA1625B1C00E00120136030BD3A
:1051E00010B501000020002301E000205B1C634C8F
:1051F0002468A3420AD262482C245C430019046844
:10520000A142F2D34468A142EFD2C06810BD0100B0
:10521000002000E0401C594A1268904209D2584AC6
:105220002C234343D21813689942F3D35268914216
:10523000F0D2704702000020504B1B68994200D307
:10524000704710B54E4B2C24614359180969002949
:1052500001D01000884710BD70B504000D00160085
:10526000FFF7D5FF4549096888420AD244492C22F4
:10527000504308184369002B03D032002900200056
:10528000984770BD10B50C00FFF7C1FF3B49096896
:1052900088420CD23A492C225043081881690029CF
:1052A00005D0012C01D1BB2000E0AA20884710BD09
:1052B000F8B5070015001E0000240800FFF7A7FF3F
:1052C0002E4A126890420BD22D4A2C2358431018B4
:1052D000C369002B04D0320029003800984700E051
:1052E00001242000F2BD10B50400FFF790FF234910
:1052F0000968884208D222492C2250430818016AC2
:10530000002901D02000884710BD38B50C001500D9
:10531000FFF77DFF01000120184A1268914209D26F
:10532000174A2C23594351184A6A002A02D02900EF
:105330002000904732BD38B50C001500FFF767FF1D
:10534000010001200D4A1268914209D20C4A2C2317
:10535000594351188A6A002A02D029002000904738
:1053600032BD80B5FFF753FF05492C225043081882
:10537000006A002800D0012002BD00007C6E0020E1
:10538000B06B002010B5040000F039F8206000F088
:1053900058F8606000F05BF8A06010BD01000020CC
:1053A000032900D0704780B52E494A6D9207920FAD
:1053B000C0239B0213432C4A9B1A04D05B1E05D0CA
:1053C0005B1E07D00CE000F01AF802BD0A68520517
:1053D0000CD50CE0C96D890708D58020000202BDFC
:1053E00000F00DF800F02DF800F031F802BD09686A
:1053F0001E480906490F491CFFF71CFA02BD70B58B
:105400000722184B186884081440641C9D681748CC
:10541000012138262E400AD0082E0ED0182E03D097
:10542000202E04D1C80308E0FA20C00105E01B6863
:10543000DB0A1A409140FFF7FDF92100FFF7FAF966
:1054400070BD0B4909680B4A0905090F04E00849BA
:105450000968094A4904490F8900515CC906C90E07
:10546000C84070470010024001000300006CDC02DD
:1054700008100240645F0020686000207047FEE76B
:1054800070B58EB001244148016821430160016874
:10549000214000910099A103C2680A43C260C0681C
:1054A0000140009100986002019002200290039454
:1054B00004900594A026F60501A93000FEF7B8FC7B
:1054C000A502019501A93000FEF7B2FCE1204002DF
:1054D000079020030890002009900A950C900C2159
:1054E0000B910D902A4D6868210501436960686839
:1054F00028490140A0050843686006A92800FFF775
:1055000012F9286804432C600EB070BD2248007860
:10551000002809D11E4801680122914301601F48FB
:1055200001681F4A0A400260704780B51D48016843
:10553000090409D50068400406D400F015F8792064
:1055400000F01DF8012000E000201349087002BDA2
:1055500010B500F009F8040000F006F86040FF28DC
:1055600000D0EC24200010BD10B50E4C01E000F07E
:1055700057F820688006FAD5A068C0B210BD094966
:10558000C86008684006FCD570470000341002402F
:1055900000380140FFFF9FFF806E00204010024056
:1055A000FFBFFFFF1C38014080B50078012806D1FD
:1055B0000020FFF7E4FF0020FFF7E1FF01E00228F1
:1055C00005D10020FFF7DBFF0020FFF7D8FF01BD6A
:1055D00080F30888704762B6704780B500F089F89C
:1055E000AA2801D0012002BD002002BD05490860A3
:1055F000704710B5034C2068002802D08047002077
:10560000206010BD786E00200A480B490160062218
:1056100042600A4B8360580808604A600B6070471C
:1056200080B5044800F010F9002801D0FEF730FBE7
:1056300001BD0000646E002000300040AAAA0000F6
:1056400080B500F036F901BD80B505E080B500F009
:1056500030F900F042F901BD00F03BF901BD0078DE
:105660007047F8B584B006000F00140000200390C6
:10567000082200216846FEF70CFB002F2AD0029476
:10568000002C27D0FFF7DCFF3C00029D06E00CCC8D
:105690003100012000F0E0F80836083DE808F6D1B6
:1056A000002D15D00820411BC9B26846039AA35C9F
:1056B0008354521CAA42FAD3002903D0FF22401976
:1056C000FFF7B2F868460CC83100012000F0C4F8BA
:1056D000FFF7BAFF05B0F0BD38B50400FFF73FFC97
:1056E000FFF779FF201D05682068FFF771FFA847C5
:1056F00031BD80B58EB0684600F0D7F904980FB080
:1057000000BD10B58EB00400CC2C1AD00220009041
:105710000494FFF79BFF474847490860684600F03C
:1057200043F9AA2C0AD10820009044480890444923
:1057300009910A900B91684600F036F94148FFF74D
:1057400055FF0EB010BDF3B58FB000276B461F702C
:1057500002240125374E012818D11700FFF776FFE4
:10576000354806600195109E012F07D93178707871
:1057700002950391049001A800F016F9042F19D3A3
:10578000B078F17802940390049110E0002815D1CC
:10579000FFF75CFF2848066001950295FF250395F9
:1057A000049701A800F000F902940395049701A85A
:1057B00000F0FAF82348FFF719FF01E0684605708A
:1057C0006846007811B0F0BDF8B588B005000C004F
:1057D00000200690019005906946087000F069F875
:1057E0001448154908602888AE1C0221029101273F
:1057F00004970794069C059D05900AE03088039065
:1058000001A902A800F0F0FE002800D06D1CB61C13
:10581000641C0598844203D2079840088442EDD363
:10582000FFF712FF002D01D0684607706846007828
:1058300009B0F0BDFAC300001020024000F80F08C4
:1058400000080008C55D00200249006801600020D2
:1058500070470000AAAA0000F1B50F0014001D0057
:1058600047480078012801D10220F2BD01204449B7
:10587000087000264E60FA20800000F050F8010009
:1058800014D1380022002B000099012902D100F028
:105890006BF802E0110000F029FFFA20800000F010
:1058A0003EF838490A68009B9A430A6034490E70F2
:1058B000F2BD0020364980221206CB68134007D083
:1058C000344B0B60344B0B60C9680A4000D0012098
:1058D000704701208021090610E001202F4982072E
:1058E0008B68134007D02E4B0B602E4B0B608968E2
:1058F0000A4000D10020704701208107214A136827
:105900000B4313601268114000D0002070471D48FF
:105910000168802212050A4302600120704770B5B9
:105920000500FEF73BF94619174C2068C00305D562
:10593000FEF734F9B042F8D3032070BD2168134854
:105940000840206003D00E494860012070BDFEF77A
:1059500025F945192068400304D5FEF71FF9A84230
:10596000F8D3E9E7002070BD30B506490C68012581
:1059700025430D600260BFF36F8F001D036030BDD3
:10598000386E00201420024010200240FAC30000AC
:105990000820024023016745AB89EFCD0C2002406F
:1059A0003B2A19087F6E5D4CF8B5704909780129CA
:1059B00001D10220F2BD050001266C490E700020C5
:1059C0004860644C2868304009D0E868A968000441
:1059D00001436868012801D0E16100E0A161286805
:1059E000022706210140062901D12A690CE038422C
:1059F00005D0E0685E4901402A69080006E04007DA
:105A000006D500F0A9F80200A969686900F097F8C6
:105A10002878000727D5E969F8200006554A0A408A
:105A200016D06A6A009262690E4009D02B6A1B1870
:105A30005B0A2361530A5B02009A1218520A1A4346
:105A400080231B06194002D011001A000A4362612C
:105A5000E9690F4007D0E96AAA6A1218520A22625D
:105A60000818400A60622878C00607D5E06E4249EF
:105A70000140286B0843696B0143E166FA25AD00DC
:105A80002800FFF74CFF01000BD12068802189021C
:105A9000014321602800FFF742FF2168374A0A408E
:105AA00022600021314A1170F2BDF8B504000720D0
:105AB0002060334D7F266068012804D1E8683040BB
:105AC000A060E86803E028693040A0602869000C05
:105AD0003040E06000F040F8206128682449084028
:105AE000A06161616A6880200005264952020A406F
:105AF00012182262AB68244A5F020F40BF18676227
:105B0000E7697F007F08BC4680273F063B40674629
:105B10003B43E3616B695B020B401818A062A86904
:105B2000400201408818E062E06903210143E1611D
:105B3000286ED10A0140216306406663F1BD30B58D
:105B40000F4B1C68FF250543AC4321430A431A60F1
:105B500030BD00001420024009480068C0B2AA28E5
:105B600002D0CC2800D0BB2070470000386E002047
:105B700000FFEF3F0100008080FFFEFFFFFFFDFF01
:105B80002020024000FE0300FF0100087CB500A8B1
:105B9000401C00BF12A10A780270844E00224021EE
:105BA0003000FEF7EEF9824DFA24A4002300012212
:105BB00000A9491C2800FDF705FB230001226946C6
:105BC0002800FDF7E7FB012240213000FEF7D9F95C
:105BD00068460078C00701D5022076BD002076BD5A
:105BE000050000007CB5684675A10A780270FDF7D3
:105BF000D5FF06006D4C002240212000FEF7C1F9C0
:105C0000FA25AD002B00012269466A48FDF7DAFA51
:105C1000012240212000FEF7B4F9FFF7B7FF022868
:105C200006D1FDF7BBFF801BA842F6D9032076BD45
:105C3000002076BDF1B582B01700684603220270DD
:105C40000A0C42700A0A8270C170584E002240212C
:105C50003000FEF796F9574DFA24A40023000422E1
:105C600069462800FDF7AEFA2300BAB2029928006F
:105C7000FDF790FB002801D00120FEBD012240214C
:105C80003000FEF77EF90020FEBDF8B584B00600B6
:105C90000C001500FDF782FF0390002220008021F8
:105CA000490052189042FCD22900121A0C0091426D
:105CB00000D914000500401801900296FA27BF0091
:105CC000022069460870280C4870280A8870CD7038
:105CD000FFF788FF002240213748FEF752F93B4684
:105CE000042269463248FDF76DFA00280ED13B00C8
:105CF000A2B202992E48FDF765FA002806D10122CA
:105D000040212D48FEF73DF9039E01E001201CE0F3
:105D1000FFF73CFF022806D1FDF740FF801BB84289
:105D2000F6D9032011E003962D190298001902906C
:105D30000198802149006918884201D2441B01E082
:105D4000802464008542BBD3002005B0F0BD38B587
:105D50000400FDF723FF0500684620210170210C97
:105D60004170210A8170C470FFF73CFF0F4C002284
:105D700040212000FEF705F9FA239B000422694622
:105D80000B48FDF71FFA012240212000FEF7F9F829
:105D9000FFF7FCFE022807D1FDF700FF401B074973
:105DA0008842F5D3032032BD002032BD00040050EC
:105DB0009C6D00209C6D002000040050B90B000079
:105DC0000600000080B5FFF7A2FDFFF795FDFFF785
:105DD00080FD01BD0078704738B50C001500FFF755
:105DE00068FDFFF77AFD184818490160002D22D0A0
:105DF0002178CC291FD0022D01D321680161092D02
:105E000001D3A1684161112D01D321698161192D4F
:105E100001D3A169C161212D01D3216A0162292D1C
:105E200001D3A16A4162312D01D3216B8162712DB1
:105E300001D3216F01674168802292020A434260C8
:105E40000348FFF7D3FB31BD10200240FAC3000026
:105E5000C55D002000787047F8B584B006000F00DB
:105E6000140000200390082200216846FDF711FF6E
:105E7000002F2AD00294002C27D0FFF71AFD3C00F7
:105E8000029D06E00CCC31000120FFF7E5FC08364E
:105E9000083DE808F6D1002D15D00820411BC9B2F5
:105EA0006846039AA35C8354521CAA42FAD3002981
:105EB00003D0FF224019FEF7B7FC68460CC831003A
:105EC0000120FFF7C9FCFFF704FD05B0F0BD80B568
:105ED0000122C021C90541186846FFF7ABFE002822
:105EE00001D01F2002BD6846007802BD70B50D00CC
:105EF0001400C021C9054618000502D13000FFF783
:105F000026FF220031002800FFF7BFFE002806D040
:105F1000002C04D01F2221002800FEF785FC70BD54
:105F20000020704701000000020000000400000093
:105F300006000000080000000A0000000C0000003D
:105F40001000000020000000400000008000000061
:105F5000000100000001000000010000000100003D
:105F60000001000000000000000000000000000030
:105F70000000000000000000000000000000000021
:105F8000000000000100000002000000030000000B
:105F900004000000060000000700000008000000E8
:105FA000090000000078704730B5930703D0130054
:105FB000FC221A40121D002303E0CC58C5182C60A7
:105FC0001B1D9342F9D330BD38B50400FEF7C7FF5F
:105FD000FFF701FB201D05682068FFF7F9FAA847C5
:105FE00031BD70B40123002413E00168001D194283
:105FF00002D04D466918491E0C60091D121F042A63
:10600000FAD20D00960701D50C80AD1C1A4000D0C5
:106010002C700268001D002AE7D170BC7047FEE7B3
:1060200010B5074979441831064C7C44163404E015
:10603000081D0A68891888470100A142F8D110BDDF
:1060400008000000240000009BFFFFFF6007000025
:1060500024670020000000004FDCFFFFF400000078
:106060004A0400000064002000000000000000005E
:10607000000000000000000001000000020000001D
:10608000030000000400000000F00DF8002801D01B
:10609000FFF7C6FF00BF00BF002000BF00BFFDF735
:1060A00083FD00F002F80120704780B500F002F88F
:1060B00001BDFEE70746384600F002F8FBE7FEE7C1
:1060C0002021090326311820ABBEF9E70548014617
:1060D00003B4684680F3098800BF00BF00BF00BF5B
:1060E000FFF7D2FFA5EDF5FE0148804701480047C4
:1060F00019610020CD6000200248416802788918AB
:1061000041607047AC650020FEE7FEE770477047CE
:1061100080B5FFF7F1FF01BD0148024908607047F3
:106120000030002008ED00E00078704700787047EC
:10613000FEE7FEE7FEE7FEE7FEE7FEE7FEE7FEE737
:10614000FEE7FEE7FEE7FEE7FEE7FEE7FEE7FEE727
:10615000D200011007815400200D5500202B04129D
:106160005104127F04E0030956002000011003755A
:10617000FF1F0078041002030000061DF3022961CE
:106180002481012002A00000800413000725F004F0
:1061900001CF5E0020ED5E30F309215F4433DDDD89
:1061A0001A200208000004041300010F125F981265
:1061B0006304100303570020470452D9A812C90CE6
:1061C0001003BD490020EF041003074A00202904F2
:1061D000128B0412F30410034D4B0020750412932C
:1061E00004F0040C614C0020C94CB8100400594D57
:1061F0000020E50431EC128004117E11F31001003F
:10620000D55D70F2065D3C1270281274042204AA57
:106210001001000055ECF306595E2C121418329050
:10622000041300022116A50496A90892C90C520174
:106230000921541001006CDC2F116422400410016C
:1062400000000514F60A2D84105FF3B581B0060036
:10625000374F3878012801D10220FEBD01243C705F
:10626000FA20800000F043F8002501003DD100969F
:106270000020C043029908602E4E71682E480840E5
:1062800000994968C90001432C48084370602B49B4
:10629000B8692B4A90421BD1002200203368DB03EF
:1062A00004D51300521C8B42F8D903109013254AD1
:1062B0001A40326002D02448426001200022336834
:1062C0005B0308221702E03D2005F00CF8010003F3
:1062D000D05A1010029A11607168022291437160C5
:1062E0003D70FEBD30B5E2100822002400200E4BA8
:1062F0001D68ED5E100F2500641CA942F8D2032032
:106300001D680E4C2C401C5E10010D48445E1001AF
:106310001C68642012145C32A120240F30BD0000E0
:10632000906400201020024007FCFFFF022E10396D
:10633000F0FFFF0000AAAAFAC30000386E00203068
:10634000B50B4A53688024E4021C435460EFF310F9
:106350008372B640240D680560091D001D641EF996
:10636000D11068C003FCD483F310885022BF4C00C6
:05637000020201020120
:04000005200060CDAA
:00000001FF
